{
  "contractName": "MeetupContract",
  "abi": [
    {
      "inputs": [],
      "payable": false,
      "stateMutability": "nonpayable",
      "type": "constructor"
    },
    {
      "constant": true,
      "inputs": [],
      "name": "get",
      "outputs": [
        {
          "name": "",
          "type": "string"
        }
      ],
      "payable": false,
      "stateMutability": "view",
      "type": "function"
    },
    {
      "constant": false,
      "inputs": [
        {
          "name": "_message",
          "type": "string"
        }
      ],
      "name": "set",
      "outputs": [],
      "payable": false,
      "stateMutability": "nonpayable",
      "type": "function"
    }
  ],
  "bytecode": "0x608060405234801561001057600080fd5b5060408051808201909152600a8082527f6e65774d6573736167650000000000000000000000000000000000000000000060209092019182526100559160009161005b565b506100f6565b828054600181600116156101000203166002900490600052602060002090601f016020900481019282601f1061009c57805160ff19168380011785556100c9565b828001600101855582156100c9579182015b828111156100c95782518255916020019190600101906100ae565b506100d59291506100d9565b5090565b6100f391905b808211156100d557600081556001016100df565b90565b610301806101056000396000f3fe60806040526004361061004b5763ffffffff7c01000000000000000000000000000000000000000000000000000000006000350416634ed3885e81146100505780636d4ce63c14610105575b600080fd5b34801561005c57600080fd5b506101036004803603602081101561007357600080fd5b81019060208101813564010000000081111561008e57600080fd5b8201836020820111156100a057600080fd5b803590602001918460018302840111640100000000831117156100c257600080fd5b91908080601f01602080910402602001604051908101604052809392919081815260200183838082843760009201919091525092955061018f945050505050565b005b34801561011157600080fd5b5061011a6101a6565b6040805160208082528351818301528351919283929083019185019080838360005b8381101561015457818101518382015260200161013c565b50505050905090810190601f1680156101815780820380516001836020036101000a031916815260200191505b509250505060405180910390f35b80516101a290600090602084019061023d565b5050565b60008054604080516020601f60026000196101006001881615020190951694909404938401819004810282018101909252828152606093909290918301828280156102325780601f1061020757610100808354040283529160200191610232565b820191906000526020600020905b81548152906001019060200180831161021557829003601f168201915b505050505090505b90565b828054600181600116156101000203166002900490600052602060002090601f016020900481019282601f1061027e57805160ff19168380011785556102ab565b828001600101855582156102ab579182015b828111156102ab578251825591602001919060010190610290565b506102b79291506102bb565b5090565b61023a91905b808211156102b757600081556001016102c156fea165627a7a72305820007aaac128631cb76f7be170787c1dc6549795d167f9782d6ed430fe309f3bd00029",
  "source": "pragma solidity ^0.5.0;\n\ncontract MeetupContract {\n    string message;\n\n    constructor() public {\n        message = \"newMessage\";\n    }\n\n    function get() public view returns(string memory) {\n        return message;\n    }\n\n    function set(string memory _message) public {\n        message = _message;\n    }\n}",
  "sourcePath": "/Users/fodediop/dev/crypto/ethereum-blockchain/contracts/MeetupContract.sol",
  "compiler": {
    "name": "solc",
    "version": "0.5.0+commit.1d4f565a.Emscripten.clang"
  },
  "schemaVersion": "3.0.1",
  "updatedAt": "2019-01-08T02:41:59.327Z",
  "devdoc": {
    "methods": {}
  },
  "userdoc": {
    "methods": {}
  }
}